{
  "contractName": "HealthCare",
  "abi": [
    {
      "inputs": [],
      "payable": false,
      "stateMutability": "nonpayable",
      "type": "constructor"
    },
    {
      "constant": true,
      "inputs": [],
      "name": "medecinCount",
      "outputs": [
        {
          "internalType": "uint256",
          "name": "",
          "type": "uint256"
        }
      ],
      "payable": false,
      "stateMutability": "view",
      "type": "function"
    },
    {
      "constant": false,
      "inputs": [
        {
          "internalType": "string",
          "name": "_fname",
          "type": "string"
        },
        {
          "internalType": "string",
          "name": "_lname",
          "type": "string"
        },
        {
          "internalType": "uint8",
          "name": "_age",
          "type": "uint8"
        },
        {
          "internalType": "uint32",
          "name": "_ph_num",
          "type": "uint32"
        }
      ],
      "name": "signupPatient",
      "outputs": [],
      "payable": false,
      "stateMutability": "nonpayable",
      "type": "function"
    },
    {
      "constant": false,
      "inputs": [
        {
          "internalType": "string",
          "name": "_fname",
          "type": "string"
        },
        {
          "internalType": "string",
          "name": "_lname",
          "type": "string"
        },
        {
          "internalType": "uint8",
          "name": "_licenceId",
          "type": "uint8"
        },
        {
          "internalType": "uint32",
          "name": "_ph_num",
          "type": "uint32"
        }
      ],
      "name": "signupDoctor",
      "outputs": [],
      "payable": false,
      "stateMutability": "nonpayable",
      "type": "function"
    },
    {
      "constant": false,
      "inputs": [
        {
          "internalType": "address",
          "name": "doctor_id",
          "type": "address"
        }
      ],
      "name": "grantAccessToDoctor",
      "outputs": [],
      "payable": false,
      "stateMutability": "nonpayable",
      "type": "function"
    },
    {
      "constant": false,
      "inputs": [
        {
          "internalType": "string",
          "name": "_file_name",
          "type": "string"
        },
        {
          "internalType": "string",
          "name": "_file_type",
          "type": "string"
        },
        {
          "internalType": "string",
          "name": "_fileHash",
          "type": "string"
        },
        {
          "internalType": "address",
          "name": "_patient_Id",
          "type": "address"
        }
      ],
      "name": "addFile_byDc",
      "outputs": [],
      "payable": false,
      "stateMutability": "nonpayable",
      "type": "function"
    },
    {
      "constant": false,
      "inputs": [
        {
          "internalType": "string",
          "name": "_file_name",
          "type": "string"
        },
        {
          "internalType": "string",
          "name": "_file_type",
          "type": "string"
        },
        {
          "internalType": "string",
          "name": "_fileHash",
          "type": "string"
        }
      ],
      "name": "addFile_byPt",
      "outputs": [],
      "payable": false,
      "stateMutability": "nonpayable",
      "type": "function"
    },
    {
      "constant": false,
      "inputs": [
        {
          "internalType": "int256",
          "name": "_humidity",
          "type": "int256"
        },
        {
          "internalType": "int256",
          "name": "_temperature",
          "type": "int256"
        }
      ],
      "name": "setData",
      "outputs": [],
      "payable": false,
      "stateMutability": "nonpayable",
      "type": "function"
    },
    {
      "constant": true,
      "inputs": [],
      "name": "getPatientInfoForPatient",
      "outputs": [
        {
          "internalType": "string",
          "name": "",
          "type": "string"
        },
        {
          "internalType": "string",
          "name": "",
          "type": "string"
        },
        {
          "internalType": "uint8",
          "name": "",
          "type": "uint8"
        },
        {
          "internalType": "string[]",
          "name": "",
          "type": "string[]"
        },
        {
          "internalType": "address[]",
          "name": "",
          "type": "address[]"
        },
        {
          "internalType": "int256[]",
          "name": "",
          "type": "int256[]"
        },
        {
          "internalType": "int256[]",
          "name": "",
          "type": "int256[]"
        }
      ],
      "payable": false,
      "stateMutability": "view",
      "type": "function"
    },
    {
      "constant": true,
      "inputs": [],
      "name": "getDoctorInfo",
      "outputs": [
        {
          "internalType": "string",
          "name": "",
          "type": "string"
        },
        {
          "internalType": "string",
          "name": "",
          "type": "string"
        },
        {
          "internalType": "address[]",
          "name": "",
          "type": "address[]"
        }
      ],
      "payable": false,
      "stateMutability": "view",
      "type": "function"
    },
    {
      "constant": true,
      "inputs": [
        {
          "internalType": "address",
          "name": "_user",
          "type": "address"
        }
      ],
      "name": "checkProfile",
      "outputs": [
        {
          "internalType": "string",
          "name": "",
          "type": "string"
        },
        {
          "internalType": "string",
          "name": "",
          "type": "string"
        }
      ],
      "payable": false,
      "stateMutability": "view",
      "type": "function"
    },
    {
      "constant": true,
      "inputs": [],
      "name": "getPatientInfoForDoctor",
      "outputs": [
        {
          "internalType": "string",
          "name": "",
          "type": "string"
        },
        {
          "internalType": "string",
          "name": "",
          "type": "string"
        },
        {
          "internalType": "uint8",
          "name": "",
          "type": "uint8"
        },
        {
          "internalType": "address",
          "name": "",
          "type": "address"
        },
        {
          "internalType": "string[]",
          "name": "",
          "type": "string[]"
        },
        {
          "internalType": "int256[]",
          "name": "",
          "type": "int256[]"
        },
        {
          "internalType": "int256[]",
          "name": "",
          "type": "int256[]"
        }
      ],
      "payable": false,
      "stateMutability": "view",
      "type": "function"
    }
  ],
  "bytecode": "0x6080604052600060015534801561001557600080fd5b50336000806101000a81548173ffffffffffffffffffffffffffffffffffffffff021916908373ffffffffffffffffffffffffffffffffffffffff16021790555061573680620000666000396000f3fe608060405234801561001057600080fd5b50600436106100a95760003560e01c8063ae7c509b11610071578063ae7c509b14610159578063b12e583e14610175578063b380f5c614610199578063d0e60d08146101b9578063d1c54206146101d5578063d568b1be146101f1576100a9565b806301d99258146100ae5780631c8e251c146100df5780634ef2be45146100fb5780636f53c17814610117578063a95d76bf1461013b575b600080fd5b6100c860048036036100c39190810190614dee565b61020d565b6040516100d69291906152d1565b60405180910390f35b6100f960048036036100f49190810190614dee565b610b38565b005b61011560048036036101109190810190614f95565b6115a3565b005b61011f611830565b60405161013297969594939291906153e6565b60405180910390f35b610143612362565b604051610150919061547f565b60405180910390f35b610173600480360361016e9190810190614eea565b612368565b005b61017d61288a565b6040516101909796959493929190615354565b60405180910390f35b6101a1613119565b6040516101b093929190615308565b60405180910390f35b6101d360048036036101ce9190810190614e17565b6136da565b005b6101ef60048036036101ea9190810190614e53565b613d67565b005b61020b60048036036102069190810190614f95565b614528565b005b606080610218614943565b600460008573ffffffffffffffffffffffffffffffffffffffff1673ffffffffffffffffffffffffffffffffffffffff16815260200190815260200160002060405180610160016040529081600082018054600181600116156101000203166002900480601f0160208091040260200160405190810160405280929190818152602001828054600181600116156101000203166002900480156102fc5780601f106102d1576101008083540402835291602001916102fc565b820191906000526020600020905b8154815290600101906020018083116102df57829003601f168201915b50505050508152602001600182018054600181600116156101000203166002900480601f01602080910402602001604051908101604052809291908181526020018280546001816001161561010002031660029004801561039e5780601f106103735761010080835404028352916020019161039e565b820191906000526020600020905b81548152906001019060200180831161038157829003601f168201915b505050505081526020016002820160009054906101000a900460ff1660ff1660ff1681526020016002820160019054906101000a900473ffffffffffffffffffffffffffffffffffffffff1673ffffffffffffffffffffffffffffffffffffffff1673ffffffffffffffffffffffffffffffffffffffff16815260200160038201805480602002602001604051908101604052809291908181526020016000905b828210156104fb578382906000526020600020018054600181600116156101000203166002900480601f0160208091040260200160405190810160405280929190818152602001828054600181600116156101000203166002900480156104e75780601f106104bc576101008083540402835291602001916104e7565b820191906000526020600020905b8154815290600101906020018083116104ca57829003601f168201915b50505050508152602001906001019061043f565b5050505081526020016004820180548060200260200160405190810160405280929190818152602001828054801561058857602002820191906000526020600020905b8160009054906101000a900473ffffffffffffffffffffffffffffffffffffffff1673ffffffffffffffffffffffffffffffffffffffff168152602001906001019080831161053e575b505050505081526020016005820160009054906101000a900463ffffffff1663ffffffff1663ffffffff16815260200160068201805480602002602001604051908101604052809291908181526020016000905b82821015610698578382906000526020600020018054600181600116156101000203166002900480601f0160208091040260200160405190810160405280929190818152602001828054600181600116156101000203166002900480156106845780601f1061065957610100808354040283529160200191610684565b820191906000526020600020905b81548152906001019060200180831161066757829003601f168201915b5050505050815260200190600101906105dc565b50505050815260200160078201548152602001600882018054806020026020016040519081016040528092919081815260200182805480156106f957602002820191906000526020600020905b8154815260200190600101908083116106e5575b505050505081526020016009820180548060200260200160405190810160405280929190818152602001828054801561075157602002820191906000526020600020905b81548152602001906001019080831161073d575b50505050508152505090506107646149bc565b600260008673ffffffffffffffffffffffffffffffffffffffff1673ffffffffffffffffffffffffffffffffffffffff1681526020019081526020016000206040518060c0016040529081600082018054600181600116156101000203166002900480601f0160208091040260200160405190810160405280929190818152602001828054600181600116156101000203166002900480156108475780601f1061081c57610100808354040283529160200191610847565b820191906000526020600020905b81548152906001019060200180831161082a57829003601f168201915b50505050508152602001600182018054600181600116156101000203166002900480601f0160208091040260200160405190810160405280929190818152602001828054600181600116156101000203166002900480156108e95780601f106108be576101008083540402835291602001916108e9565b820191906000526020600020905b8154815290600101906020018083116108cc57829003601f168201915b505050505081526020016002820160009054906101000a900473ffffffffffffffffffffffffffffffffffffffff1673ffffffffffffffffffffffffffffffffffffffff1673ffffffffffffffffffffffffffffffffffffffff168152602001600382015481526020016004820160009054906101000a900463ffffffff1663ffffffff1663ffffffff168152602001600582018054806020026020016040519081016040528092919081815260200182805480156109fd57602002820191906000526020600020905b8160009054906101000a900473ffffffffffffffffffffffffffffffffffffffff1673ffffffffffffffffffffffffffffffffffffffff16815260200190600101908083116109b3575b5050505050815250509050600073ffffffffffffffffffffffffffffffffffffffff16826060015173ffffffffffffffffffffffffffffffffffffffff161115610a8a5781600001518090506040518060400160405280600781526020017f70617469656e7400000000000000000000000000000000000000000000000000815250935093505050610b33565b600073ffffffffffffffffffffffffffffffffffffffff16816040015173ffffffffffffffffffffffffffffffffffffffff161115610b0c5780600001518090506040518060400160405280600681526020017f646f63746f720000000000000000000000000000000000000000000000000000815250935093505050610b33565b60405180602001604052806000815250604051806020016040528060008152509350935050505b915091565b33610b41614943565b600460008373ffffffffffffffffffffffffffffffffffffffff1673ffffffffffffffffffffffffffffffffffffffff16815260200190815260200160002060405180610160016040529081600082018054600181600116156101000203166002900480601f016020809104026020016040519081016040528092919081815260200182805460018160011615610100020316600290048015610c255780601f10610bfa57610100808354040283529160200191610c25565b820191906000526020600020905b815481529060010190602001808311610c0857829003601f168201915b50505050508152602001600182018054600181600116156101000203166002900480601f016020809104026020016040519081016040528092919081815260200182805460018160011615610100020316600290048015610cc75780601f10610c9c57610100808354040283529160200191610cc7565b820191906000526020600020905b815481529060010190602001808311610caa57829003601f168201915b505050505081526020016002820160009054906101000a900460ff1660ff1660ff1681526020016002820160019054906101000a900473ffffffffffffffffffffffffffffffffffffffff1673ffffffffffffffffffffffffffffffffffffffff1673ffffffffffffffffffffffffffffffffffffffff16815260200160038201805480602002602001604051908101604052809291908181526020016000905b82821015610e24578382906000526020600020018054600181600116156101000203166002900480601f016020809104026020016040519081016040528092919081815260200182805460018160011615610100020316600290048015610e105780601f10610de557610100808354040283529160200191610e10565b820191906000526020600020905b815481529060010190602001808311610df357829003601f168201915b505050505081526020019060010190610d68565b50505050815260200160048201805480602002602001604051908101604052809291908181526020018280548015610eb157602002820191906000526020600020905b8160009054906101000a900473ffffffffffffffffffffffffffffffffffffffff1673ffffffffffffffffffffffffffffffffffffffff1681526020019060010190808311610e67575b505050505081526020016005820160009054906101000a900463ffffffff1663ffffffff1663ffffffff16815260200160068201805480602002602001604051908101604052809291908181526020016000905b82821015610fc1578382906000526020600020018054600181600116156101000203166002900480601f016020809104026020016040519081016040528092919081815260200182805460018160011615610100020316600290048015610fad5780601f10610f8257610100808354040283529160200191610fad565b820191906000526020600020905b815481529060010190602001808311610f9057829003601f168201915b505050505081526020019060010190610f05565b505050508152602001600782015481526020016008820180548060200260200160405190810160405280929190818152602001828054801561102257602002820191906000526020600020905b81548152602001906001019080831161100e575b505050505081526020016009820180548060200260200160405190810160405280929190818152602001828054801561107a57602002820191906000526020600020905b815481526020019060010190808311611066575b5050505050815250509050600073ffffffffffffffffffffffffffffffffffffffff16816060015173ffffffffffffffffffffffffffffffffffffffff16116110c257600080fd5b826110cb6149bc565b600260008373ffffffffffffffffffffffffffffffffffffffff1673ffffffffffffffffffffffffffffffffffffffff1681526020019081526020016000206040518060c0016040529081600082018054600181600116156101000203166002900480601f0160208091040260200160405190810160405280929190818152602001828054600181600116156101000203166002900480156111ae5780601f10611183576101008083540402835291602001916111ae565b820191906000526020600020905b81548152906001019060200180831161119157829003601f168201915b50505050508152602001600182018054600181600116156101000203166002900480601f0160208091040260200160405190810160405280929190818152602001828054600181600116156101000203166002900480156112505780601f1061122557610100808354040283529160200191611250565b820191906000526020600020905b81548152906001019060200180831161123357829003601f168201915b505050505081526020016002820160009054906101000a900473ffffffffffffffffffffffffffffffffffffffff1673ffffffffffffffffffffffffffffffffffffffff1673ffffffffffffffffffffffffffffffffffffffff168152602001600382015481526020016004820160009054906101000a900463ffffffff1663ffffffff1663ffffffff1681526020016005820180548060200260200160405190810160405280929190818152602001828054801561136457602002820191906000526020600020905b8160009054906101000a900473ffffffffffffffffffffffffffffffffffffffff1673ffffffffffffffffffffffffffffffffffffffff168152602001906001019080831161131a575b5050505050815250509050600073ffffffffffffffffffffffffffffffffffffffff16816040015173ffffffffffffffffffffffffffffffffffffffff16116113ac57600080fd5b6000600460003373ffffffffffffffffffffffffffffffffffffffff1673ffffffffffffffffffffffffffffffffffffffff16815260200190815260200160002090506000600260008873ffffffffffffffffffffffffffffffffffffffff1673ffffffffffffffffffffffffffffffffffffffff1681526020019081526020016000209050816004018790806001815401808255809150509060018203906000526020600020016000909192909190916101000a81548173ffffffffffffffffffffffffffffffffffffffff021916908373ffffffffffffffffffffffffffffffffffffffff160217905550506000600183600401805490500390508060088190555080600560003373ffffffffffffffffffffffffffffffffffffffff1673ffffffffffffffffffffffffffffffffffffffff16815260200190815260200160002060008a73ffffffffffffffffffffffffffffffffffffffff1673ffffffffffffffffffffffffffffffffffffffff16815260200190815260200160002081905550816005013390806001815401808255809150509060018203906000526020600020016000909192909190916101000a81548173ffffffffffffffffffffffffffffffffffffffff021916908373ffffffffffffffffffffffffffffffffffffffff160217905550505050505050505050565b6000600260003373ffffffffffffffffffffffffffffffffffffffff1673ffffffffffffffffffffffffffffffffffffffff16815260200190815260200160002090506040516115f2906152bc565b60405180910390208560405160200161160b91906152a5565b60405160208183030381529060405280519060200120141561162c57600080fd5b600073ffffffffffffffffffffffffffffffffffffffff168160020160009054906101000a900473ffffffffffffffffffffffffffffffffffffffff1673ffffffffffffffffffffffffffffffffffffffff16111561168a57600080fd5b6040518060c001604052808681526020018581526020013373ffffffffffffffffffffffffffffffffffffffff1681526020018460ff1681526020018363ffffffff16815260200160006040519080825280602002602001820160405280156117025781602001602082028038833980820191505090505b50815250600260003373ffffffffffffffffffffffffffffffffffffffff1673ffffffffffffffffffffffffffffffffffffffff1681526020019081526020016000206000820151816000019080519060200190611761929190614a0e565b50602082015181600101908051906020019061177e929190614a0e565b5060408201518160020160006101000a81548173ffffffffffffffffffffffffffffffffffffffff021916908373ffffffffffffffffffffffffffffffffffffffff1602179055506060820151816003015560808201518160040160006101000a81548163ffffffff021916908363ffffffff16021790555060a0820151816005019080519060200190611813929190614a8e565b509050506001600081548092919060010191905055505050505050565b606080600060608060608033611844614943565b600460008373ffffffffffffffffffffffffffffffffffffffff1673ffffffffffffffffffffffffffffffffffffffff16815260200190815260200160002060405180610160016040529081600082018054600181600116156101000203166002900480601f0160208091040260200160405190810160405280929190818152602001828054600181600116156101000203166002900480156119285780601f106118fd57610100808354040283529160200191611928565b820191906000526020600020905b81548152906001019060200180831161190b57829003601f168201915b50505050508152602001600182018054600181600116156101000203166002900480601f0160208091040260200160405190810160405280929190818152602001828054600181600116156101000203166002900480156119ca5780601f1061199f576101008083540402835291602001916119ca565b820191906000526020600020905b8154815290600101906020018083116119ad57829003601f168201915b505050505081526020016002820160009054906101000a900460ff1660ff1660ff1681526020016002820160019054906101000a900473ffffffffffffffffffffffffffffffffffffffff1673ffffffffffffffffffffffffffffffffffffffff1673ffffffffffffffffffffffffffffffffffffffff16815260200160038201805480602002602001604051908101604052809291908181526020016000905b82821015611b27578382906000526020600020018054600181600116156101000203166002900480601f016020809104026020016040519081016040528092919081815260200182805460018160011615610100020316600290048015611b135780601f10611ae857610100808354040283529160200191611b13565b820191906000526020600020905b815481529060010190602001808311611af657829003601f168201915b505050505081526020019060010190611a6b565b50505050815260200160048201805480602002602001604051908101604052809291908181526020018280548015611bb457602002820191906000526020600020905b8160009054906101000a900473ffffffffffffffffffffffffffffffffffffffff1673ffffffffffffffffffffffffffffffffffffffff1681526020019060010190808311611b6a575b505050505081526020016005820160009054906101000a900463ffffffff1663ffffffff1663ffffffff16815260200160068201805480602002602001604051908101604052809291908181526020016000905b82821015611cc4578382906000526020600020018054600181600116156101000203166002900480601f016020809104026020016040519081016040528092919081815260200182805460018160011615610100020316600290048015611cb05780601f10611c8557610100808354040283529160200191611cb0565b820191906000526020600020905b815481529060010190602001808311611c9357829003601f168201915b505050505081526020019060010190611c08565b5050505081526020016007820154815260200160088201805480602002602001604051908101604052809291908181526020018280548015611d2557602002820191906000526020600020905b815481526020019060010190808311611d11575b5050505050815260200160098201805480602002602001604051908101604052809291908181526020018280548015611d7d57602002820191906000526020600020905b815481526020019060010190808311611d69575b5050505050815250509050600073ffffffffffffffffffffffffffffffffffffffff16816060015173ffffffffffffffffffffffffffffffffffffffff1611611dc557600080fd5b611dcd614943565b600460003373ffffffffffffffffffffffffffffffffffffffff1673ffffffffffffffffffffffffffffffffffffffff16815260200190815260200160002060405180610160016040529081600082018054600181600116156101000203166002900480601f016020809104026020016040519081016040528092919081815260200182805460018160011615610100020316600290048015611eb15780601f10611e8657610100808354040283529160200191611eb1565b820191906000526020600020905b815481529060010190602001808311611e9457829003601f168201915b50505050508152602001600182018054600181600116156101000203166002900480601f016020809104026020016040519081016040528092919081815260200182805460018160011615610100020316600290048015611f535780601f10611f2857610100808354040283529160200191611f53565b820191906000526020600020905b815481529060010190602001808311611f3657829003601f168201915b505050505081526020016002820160009054906101000a900460ff1660ff1660ff1681526020016002820160019054906101000a900473ffffffffffffffffffffffffffffffffffffffff1673ffffffffffffffffffffffffffffffffffffffff1673ffffffffffffffffffffffffffffffffffffffff16815260200160038201805480602002602001604051908101604052809291908181526020016000905b828210156120b0578382906000526020600020018054600181600116156101000203166002900480601f01602080910402602001604051908101604052809291908181526020018280546001816001161561010002031660029004801561209c5780601f106120715761010080835404028352916020019161209c565b820191906000526020600020905b81548152906001019060200180831161207f57829003601f168201915b505050505081526020019060010190611ff4565b5050505081526020016004820180548060200260200160405190810160405280929190818152602001828054801561213d57602002820191906000526020600020905b8160009054906101000a900473ffffffffffffffffffffffffffffffffffffffff1673ffffffffffffffffffffffffffffffffffffffff16815260200190600101908083116120f3575b505050505081526020016005820160009054906101000a900463ffffffff1663ffffffff1663ffffffff16815260200160068201805480602002602001604051908101604052809291908181526020016000905b8282101561224d578382906000526020600020018054600181600116156101000203166002900480601f0160208091040260200160405190810160405280929190818152602001828054600181600116156101000203166002900480156122395780601f1061220e57610100808354040283529160200191612239565b820191906000526020600020905b81548152906001019060200180831161221c57829003601f168201915b505050505081526020019060010190612191565b50505050815260200160078201548152602001600882018054806020026020016040519081016040528092919081815260200182805480156122ae57602002820191906000526020600020905b81548152602001906001019080831161229a575b505050505081526020016009820180548060200260200160405190810160405280929190818152602001828054801561230657602002820191906000526020600020905b8154815260200190600101908083116122f2575b505050505081525050905080600001518160200151826040015183608001518460a00151856101200151866101400151869650859550839350829250819150809050995099509950995099509950995050505090919293949596565b60015481565b336123716149bc565b600260008373ffffffffffffffffffffffffffffffffffffffff1673ffffffffffffffffffffffffffffffffffffffff1681526020019081526020016000206040518060c0016040529081600082018054600181600116156101000203166002900480601f0160208091040260200160405190810160405280929190818152602001828054600181600116156101000203166002900480156124545780601f1061242957610100808354040283529160200191612454565b820191906000526020600020905b81548152906001019060200180831161243757829003601f168201915b50505050508152602001600182018054600181600116156101000203166002900480601f0160208091040260200160405190810160405280929190818152602001828054600181600116156101000203166002900480156124f65780601f106124cb576101008083540402835291602001916124f6565b820191906000526020600020905b8154815290600101906020018083116124d957829003601f168201915b505050505081526020016002820160009054906101000a900473ffffffffffffffffffffffffffffffffffffffff1673ffffffffffffffffffffffffffffffffffffffff1673ffffffffffffffffffffffffffffffffffffffff168152602001600382015481526020016004820160009054906101000a900463ffffffff1663ffffffff1663ffffffff1681526020016005820180548060200260200160405190810160405280929190818152602001828054801561260a57602002820191906000526020600020905b8160009054906101000a900473ffffffffffffffffffffffffffffffffffffffff1673ffffffffffffffffffffffffffffffffffffffff16815260200190600101908083116125c0575b5050505050815250509050600073ffffffffffffffffffffffffffffffffffffffff16816040015173ffffffffffffffffffffffffffffffffffffffff161161265257600080fd5b6000600460008573ffffffffffffffffffffffffffffffffffffffff1673ffffffffffffffffffffffffffffffffffffffff16815260200190815260200160002090506001600760008673ffffffffffffffffffffffffffffffffffffffff1673ffffffffffffffffffffffffffffffffffffffff168152602001908152602001600020866040516126e491906152a5565b908152602001604051809103902054106126fd57600080fd5b60405180606001604052808881526020018781526020018573ffffffffffffffffffffffffffffffffffffffff1681525060068660405161273e91906152a5565b90815260200160405180910390206000820151816000019080519060200190612768929190614a0e565b506020820151816001019080519060200190612785929190614a0e565b5060408201518160020160006101000a81548173ffffffffffffffffffffffffffffffffffffffff021916908373ffffffffffffffffffffffffffffffffffffffff1602179055509050508060030185908060018154018082558091505090600182039060005260206000200160009091929091909150908051906020019061280f929190614b18565b505060006001826003018054905003905080600760008773ffffffffffffffffffffffffffffffffffffffff1673ffffffffffffffffffffffffffffffffffffffff1681526020019081526020016000208760405161286e91906152a5565b9081526020016040518091039020819055505050505050505050565b60608060008060608060603361289e6149bc565b600260008373ffffffffffffffffffffffffffffffffffffffff1673ffffffffffffffffffffffffffffffffffffffff1681526020019081526020016000206040518060c0016040529081600082018054600181600116156101000203166002900480601f0160208091040260200160405190810160405280929190818152602001828054600181600116156101000203166002900480156129815780601f1061295657610100808354040283529160200191612981565b820191906000526020600020905b81548152906001019060200180831161296457829003601f168201915b50505050508152602001600182018054600181600116156101000203166002900480601f016020809104026020016040519081016040528092919081815260200182805460018160011615610100020316600290048015612a235780601f106129f857610100808354040283529160200191612a23565b820191906000526020600020905b815481529060010190602001808311612a0657829003601f168201915b505050505081526020016002820160009054906101000a900473ffffffffffffffffffffffffffffffffffffffff1673ffffffffffffffffffffffffffffffffffffffff1673ffffffffffffffffffffffffffffffffffffffff168152602001600382015481526020016004820160009054906101000a900463ffffffff1663ffffffff1663ffffffff16815260200160058201805480602002602001604051908101604052809291908181526020018280548015612b3757602002820191906000526020600020905b8160009054906101000a900473ffffffffffffffffffffffffffffffffffffffff1673ffffffffffffffffffffffffffffffffffffffff1681526020019060010190808311612aed575b5050505050815250509050600073ffffffffffffffffffffffffffffffffffffffff16816040015173ffffffffffffffffffffffffffffffffffffffff1611612b7f57600080fd5b612b87614943565b600460003373ffffffffffffffffffffffffffffffffffffffff1673ffffffffffffffffffffffffffffffffffffffff16815260200190815260200160002060405180610160016040529081600082018054600181600116156101000203166002900480601f016020809104026020016040519081016040528092919081815260200182805460018160011615610100020316600290048015612c6b5780601f10612c4057610100808354040283529160200191612c6b565b820191906000526020600020905b815481529060010190602001808311612c4e57829003601f168201915b50505050508152602001600182018054600181600116156101000203166002900480601f016020809104026020016040519081016040528092919081815260200182805460018160011615610100020316600290048015612d0d5780601f10612ce257610100808354040283529160200191612d0d565b820191906000526020600020905b815481529060010190602001808311612cf057829003601f168201915b505050505081526020016002820160009054906101000a900460ff1660ff1660ff1681526020016002820160019054906101000a900473ffffffffffffffffffffffffffffffffffffffff1673ffffffffffffffffffffffffffffffffffffffff1673ffffffffffffffffffffffffffffffffffffffff16815260200160038201805480602002602001604051908101604052809291908181526020016000905b82821015612e6a578382906000526020600020018054600181600116156101000203166002900480601f016020809104026020016040519081016040528092919081815260200182805460018160011615610100020316600290048015612e565780601f10612e2b57610100808354040283529160200191612e56565b820191906000526020600020905b815481529060010190602001808311612e3957829003601f168201915b505050505081526020019060010190612dae565b50505050815260200160048201805480602002602001604051908101604052809291908181526020018280548015612ef757602002820191906000526020600020905b8160009054906101000a900473ffffffffffffffffffffffffffffffffffffffff1673ffffffffffffffffffffffffffffffffffffffff1681526020019060010190808311612ead575b505050505081526020016005820160009054906101000a900463ffffffff1663ffffffff1663ffffffff16815260200160068201805480602002602001604051908101604052809291908181526020016000905b82821015613007578382906000526020600020018054600181600116156101000203166002900480601f016020809104026020016040519081016040528092919081815260200182805460018160011615610100020316600290048015612ff35780601f10612fc857610100808354040283529160200191612ff3565b820191906000526020600020905b815481529060010190602001808311612fd657829003601f168201915b505050505081526020019060010190612f4b565b505050508152602001600782015481526020016008820180548060200260200160405190810160405280929190818152602001828054801561306857602002820191906000526020600020905b815481526020019060010190808311613054575b50505050508152602001600982018054806020026020016040519081016040528092919081815260200182805480156130c057602002820191906000526020600020905b8154815260200190600101908083116130ac575b505050505081525050905080600001518160200151826040015183606001518460800151856101200151866101400151869650859550829250819150809050995099509950995099509950995050505090919293949596565b6060806060336131276149bc565b600260008373ffffffffffffffffffffffffffffffffffffffff1673ffffffffffffffffffffffffffffffffffffffff1681526020019081526020016000206040518060c0016040529081600082018054600181600116156101000203166002900480601f01602080910402602001604051908101604052809291908181526020018280546001816001161561010002031660029004801561320a5780601f106131df5761010080835404028352916020019161320a565b820191906000526020600020905b8154815290600101906020018083116131ed57829003601f168201915b50505050508152602001600182018054600181600116156101000203166002900480601f0160208091040260200160405190810160405280929190818152602001828054600181600116156101000203166002900480156132ac5780601f10613281576101008083540402835291602001916132ac565b820191906000526020600020905b81548152906001019060200180831161328f57829003601f168201915b505050505081526020016002820160009054906101000a900473ffffffffffffffffffffffffffffffffffffffff1673ffffffffffffffffffffffffffffffffffffffff1673ffffffffffffffffffffffffffffffffffffffff168152602001600382015481526020016004820160009054906101000a900463ffffffff1663ffffffff1663ffffffff168152602001600582018054806020026020016040519081016040528092919081815260200182805480156133c057602002820191906000526020600020905b8160009054906101000a900473ffffffffffffffffffffffffffffffffffffffff1673ffffffffffffffffffffffffffffffffffffffff1681526020019060010190808311613376575b5050505050815250509050600073ffffffffffffffffffffffffffffffffffffffff16816040015173ffffffffffffffffffffffffffffffffffffffff161161340857600080fd5b6134106149bc565b600260003373ffffffffffffffffffffffffffffffffffffffff1673ffffffffffffffffffffffffffffffffffffffff1681526020019081526020016000206040518060c0016040529081600082018054600181600116156101000203166002900480601f0160208091040260200160405190810160405280929190818152602001828054600181600116156101000203166002900480156134f35780601f106134c8576101008083540402835291602001916134f3565b820191906000526020600020905b8154815290600101906020018083116134d657829003601f168201915b50505050508152602001600182018054600181600116156101000203166002900480601f0160208091040260200160405190810160405280929190818152602001828054600181600116156101000203166002900480156135955780601f1061356a57610100808354040283529160200191613595565b820191906000526020600020905b81548152906001019060200180831161357857829003601f168201915b505050505081526020016002820160009054906101000a900473ffffffffffffffffffffffffffffffffffffffff1673ffffffffffffffffffffffffffffffffffffffff1673ffffffffffffffffffffffffffffffffffffffff168152602001600382015481526020016004820160009054906101000a900463ffffffff1663ffffffff1663ffffffff168152602001600582018054806020026020016040519081016040528092919081815260200182805480156136a957602002820191906000526020600020905b8160009054906101000a900473ffffffffffffffffffffffffffffffffffffffff1673ffffffffffffffffffffffffffffffffffffffff168152602001906001019080831161365f575b5050505050815250509050806000015181602001518260a00151829250819150809050955095509550505050909192565b336136e3614943565b600460008373ffffffffffffffffffffffffffffffffffffffff1673ffffffffffffffffffffffffffffffffffffffff16815260200190815260200160002060405180610160016040529081600082018054600181600116156101000203166002900480601f0160208091040260200160405190810160405280929190818152602001828054600181600116156101000203166002900480156137c75780601f1061379c576101008083540402835291602001916137c7565b820191906000526020600020905b8154815290600101906020018083116137aa57829003601f168201915b50505050508152602001600182018054600181600116156101000203166002900480601f0160208091040260200160405190810160405280929190818152602001828054600181600116156101000203166002900480156138695780601f1061383e57610100808354040283529160200191613869565b820191906000526020600020905b81548152906001019060200180831161384c57829003601f168201915b505050505081526020016002820160009054906101000a900460ff1660ff1660ff1681526020016002820160019054906101000a900473ffffffffffffffffffffffffffffffffffffffff1673ffffffffffffffffffffffffffffffffffffffff1673ffffffffffffffffffffffffffffffffffffffff16815260200160038201805480602002602001604051908101604052809291908181526020016000905b828210156139c6578382906000526020600020018054600181600116156101000203166002900480601f0160208091040260200160405190810160405280929190818152602001828054600181600116156101000203166002900480156139b25780601f10613987576101008083540402835291602001916139b2565b820191906000526020600020905b81548152906001019060200180831161399557829003601f168201915b50505050508152602001906001019061390a565b50505050815260200160048201805480602002602001604051908101604052809291908181526020018280548015613a5357602002820191906000526020600020905b8160009054906101000a900473ffffffffffffffffffffffffffffffffffffffff1673ffffffffffffffffffffffffffffffffffffffff1681526020019060010190808311613a09575b505050505081526020016005820160009054906101000a900463ffffffff1663ffffffff1663ffffffff16815260200160068201805480602002602001604051908101604052809291908181526020016000905b82821015613b63578382906000526020600020018054600181600116156101000203166002900480601f016020809104026020016040519081016040528092919081815260200182805460018160011615610100020316600290048015613b4f5780601f10613b2457610100808354040283529160200191613b4f565b820191906000526020600020905b815481529060010190602001808311613b3257829003601f168201915b505050505081526020019060010190613aa7565b5050505081526020016007820154815260200160088201805480602002602001604051908101604052809291908181526020018280548015613bc457602002820191906000526020600020905b815481526020019060010190808311613bb0575b5050505050815260200160098201805480602002602001604051908101604052809291908181526020018280548015613c1c57602002820191906000526020600020905b815481526020019060010190808311613c08575b5050505050815250509050600073ffffffffffffffffffffffffffffffffffffffff16816060015173ffffffffffffffffffffffffffffffffffffffff1611613c6457600080fd5b6000600460003373ffffffffffffffffffffffffffffffffffffffff1673ffffffffffffffffffffffffffffffffffffffff1681526020019081526020016000209050600073ffffffffffffffffffffffffffffffffffffffff168160020160019054906101000a900473ffffffffffffffffffffffffffffffffffffffff1673ffffffffffffffffffffffffffffffffffffffff1611613d0457600080fd5b80600901859080600181540180825580915050906001820390600052602060002001600090919290919091505550806008018490806001815401808255809150509060018203906000526020600020016000909192909190915055505050505050565b33613d70614943565b600460008373ffffffffffffffffffffffffffffffffffffffff1673ffffffffffffffffffffffffffffffffffffffff16815260200190815260200160002060405180610160016040529081600082018054600181600116156101000203166002900480601f016020809104026020016040519081016040528092919081815260200182805460018160011615610100020316600290048015613e545780601f10613e2957610100808354040283529160200191613e54565b820191906000526020600020905b815481529060010190602001808311613e3757829003601f168201915b50505050508152602001600182018054600181600116156101000203166002900480601f016020809104026020016040519081016040528092919081815260200182805460018160011615610100020316600290048015613ef65780601f10613ecb57610100808354040283529160200191613ef6565b820191906000526020600020905b815481529060010190602001808311613ed957829003601f168201915b505050505081526020016002820160009054906101000a900460ff1660ff1660ff1681526020016002820160019054906101000a900473ffffffffffffffffffffffffffffffffffffffff1673ffffffffffffffffffffffffffffffffffffffff1673ffffffffffffffffffffffffffffffffffffffff16815260200160038201805480602002602001604051908101604052809291908181526020016000905b82821015614053578382906000526020600020018054600181600116156101000203166002900480601f01602080910402602001604051908101604052809291908181526020018280546001816001161561010002031660029004801561403f5780601f106140145761010080835404028352916020019161403f565b820191906000526020600020905b81548152906001019060200180831161402257829003601f168201915b505050505081526020019060010190613f97565b505050508152602001600482018054806020026020016040519081016040528092919081815260200182805480156140e057602002820191906000526020600020905b8160009054906101000a900473ffffffffffffffffffffffffffffffffffffffff1673ffffffffffffffffffffffffffffffffffffffff1681526020019060010190808311614096575b505050505081526020016005820160009054906101000a900463ffffffff1663ffffffff1663ffffffff16815260200160068201805480602002602001604051908101604052809291908181526020016000905b828210156141f0578382906000526020600020018054600181600116156101000203166002900480601f0160208091040260200160405190810160405280929190818152602001828054600181600116156101000203166002900480156141dc5780601f106141b1576101008083540402835291602001916141dc565b820191906000526020600020905b8154815290600101906020018083116141bf57829003601f168201915b505050505081526020019060010190614134565b505050508152602001600782015481526020016008820180548060200260200160405190810160405280929190818152602001828054801561425157602002820191906000526020600020905b81548152602001906001019080831161423d575b50505050508152602001600982018054806020026020016040519081016040528092919081815260200182805480156142a957602002820191906000526020600020905b815481526020019060010190808311614295575b5050505050815250509050600073ffffffffffffffffffffffffffffffffffffffff16816060015173ffffffffffffffffffffffffffffffffffffffff16116142f157600080fd5b6000600460003373ffffffffffffffffffffffffffffffffffffffff1673ffffffffffffffffffffffffffffffffffffffff16815260200190815260200160002090506001600760003373ffffffffffffffffffffffffffffffffffffffff1673ffffffffffffffffffffffffffffffffffffffff1681526020019081526020016000208560405161438391906152a5565b9081526020016040518091039020541061439c57600080fd5b60405180606001604052808781526020018681526020013373ffffffffffffffffffffffffffffffffffffffff168152506006856040516143dd91906152a5565b90815260200160405180910390206000820151816000019080519060200190614407929190614a0e565b506020820151816001019080519060200190614424929190614a0e565b5060408201518160020160006101000a81548173ffffffffffffffffffffffffffffffffffffffff021916908373ffffffffffffffffffffffffffffffffffffffff160217905550905050806003018490806001815401808255809150509060018203906000526020600020016000909192909190915090805190602001906144ae929190614b18565b505060006001826003018054905003905080600760003373ffffffffffffffffffffffffffffffffffffffff1673ffffffffffffffffffffffffffffffffffffffff1681526020019081526020016000208660405161450d91906152a5565b90815260200160405180910390208190555050505050505050565b6000600460003373ffffffffffffffffffffffffffffffffffffffff1673ffffffffffffffffffffffffffffffffffffffff1681526020019081526020016000209050604051614577906152bc565b60405180910390208560405160200161459091906152a5565b6040516020818303038152906040528051906020012014156145b157600080fd5b60008360ff161180156145c7575060648360ff16105b6145d057600080fd5b600073ffffffffffffffffffffffffffffffffffffffff168160020160019054906101000a900473ffffffffffffffffffffffffffffffffffffffff1673ffffffffffffffffffffffffffffffffffffffff16111561462e57600080fd5b6040518061016001604052808681526020018581526020018460ff1681526020013373ffffffffffffffffffffffffffffffffffffffff16815260200160006040519080825280602002602001820160405280156146a057816020015b606081526020019060019003908161468b5790505b50815260200160006040519080825280602002602001820160405280156146d65781602001602082028038833980820191505090505b5081526020018363ffffffff168152602001600060405190808252806020026020018201604052801561471d57816020015b60608152602001906001900390816147085790505b50815260200142815260200160006040519080825280602002602001820160405280156147595781602001602082028038833980820191505090505b508152602001600060405190808252806020026020018201604052801561478f5781602001602082028038833980820191505090505b50815250600460003373ffffffffffffffffffffffffffffffffffffffff1673ffffffffffffffffffffffffffffffffffffffff16815260200190815260200160002060008201518160000190805190602001906147ee929190614a0e565b50602082015181600101908051906020019061480b929190614a0e565b5060408201518160020160006101000a81548160ff021916908360ff16021790555060608201518160020160016101000a81548173ffffffffffffffffffffffffffffffffffffffff021916908373ffffffffffffffffffffffffffffffffffffffff1602179055506080820151816003019080519060200190614890929190614b98565b5060a08201518160040190805190602001906148ad929190614a8e565b5060c08201518160050160006101000a81548163ffffffff021916908363ffffffff16021790555060e08201518160060190805190602001906148f1929190614b98565b50610100820151816007015561012082015181600801908051906020019061491a929190614bf8565b50610140820151816009019080519060200190614938929190614bf8565b509050505050505050565b6040518061016001604052806060815260200160608152602001600060ff168152602001600073ffffffffffffffffffffffffffffffffffffffff1681526020016060815260200160608152602001600063ffffffff168152602001606081526020016000815260200160608152602001606081525090565b6040518060c001604052806060815260200160608152602001600073ffffffffffffffffffffffffffffffffffffffff16815260200160008152602001600063ffffffff168152602001606081525090565b828054600181600116156101000203166002900490600052602060002090601f016020900481019282601f10614a4f57805160ff1916838001178555614a7d565b82800160010185558215614a7d579182015b82811115614a7c578251825591602001919060010190614a61565b5b509050614a8a9190614c45565b5090565b828054828255906000526020600020908101928215614b07579160200282015b82811115614b065782518260006101000a81548173ffffffffffffffffffffffffffffffffffffffff021916908373ffffffffffffffffffffffffffffffffffffffff16021790555091602001919060010190614aae565b5b509050614b149190614c6a565b5090565b828054600181600116156101000203166002900490600052602060002090601f016020900481019282601f10614b5957805160ff1916838001178555614b87565b82800160010185558215614b87579182015b82811115614b86578251825591602001919060010190614b6b565b5b509050614b949190614c45565b5090565b828054828255906000526020600020908101928215614be7579160200282015b82811115614be6578251829080519060200190614bd6929190614a0e565b5091602001919060010190614bb8565b5b509050614bf49190614cad565b5090565b828054828255906000526020600020908101928215614c34579160200282015b82811115614c33578251825591602001919060010190614c18565b5b509050614c419190614cd9565b5090565b614c6791905b80821115614c63576000816000905550600101614c4b565b5090565b90565b614caa91905b80821115614ca657600081816101000a81549073ffffffffffffffffffffffffffffffffffffffff021916905550600101614c70565b5090565b90565b614cd691905b80821115614cd25760008181614cc99190614cfe565b50600101614cb3565b5090565b90565b614cfb91905b80821115614cf7576000816000905550600101614cdf565b5090565b90565b50805460018160011615610100020316600290046000825580601f10614d245750614d43565b601f016020900490600052602060002090810190614d429190614c45565b5b50565b600081359050614d5581615697565b92915050565b600081359050614d6a816156ae565b92915050565b600082601f830112614d8157600080fd5b8135614d94614d8f826154c7565b61549a565b91508082526020830160208301858383011115614db057600080fd5b614dbb838284615644565b50505092915050565b600081359050614dd3816156c5565b92915050565b600081359050614de8816156dc565b92915050565b600060208284031215614e0057600080fd5b6000614e0e84828501614d46565b91505092915050565b60008060408385031215614e2a57600080fd5b6000614e3885828601614d5b565b9250506020614e4985828601614d5b565b9150509250929050565b600080600060608486031215614e6857600080fd5b600084013567ffffffffffffffff811115614e8257600080fd5b614e8e86828701614d70565b935050602084013567ffffffffffffffff811115614eab57600080fd5b614eb786828701614d70565b925050604084013567ffffffffffffffff811115614ed457600080fd5b614ee086828701614d70565b9150509250925092565b60008060008060808587031215614f0057600080fd5b600085013567ffffffffffffffff811115614f1a57600080fd5b614f2687828801614d70565b945050602085013567ffffffffffffffff811115614f4357600080fd5b614f4f87828801614d70565b935050604085013567ffffffffffffffff811115614f6c57600080fd5b614f7887828801614d70565b9250506060614f8987828801614d46565b91505092959194509250565b60008060008060808587031215614fab57600080fd5b600085013567ffffffffffffffff811115614fc557600080fd5b614fd187828801614d70565b945050602085013567ffffffffffffffff811115614fee57600080fd5b614ffa87828801614d70565b935050604061500b87828801614dd9565b925050606061501c87828801614dc4565b91505092959194509250565b6000615034838361506c565b60208301905092915050565b600061504c83836151bb565b60208301905092915050565b60006150648383615234565b905092915050565b615075816155e1565b82525050565b615084816155e1565b82525050565b600061509582615523565b61509f8185615581565b93506150aa836154f3565b8060005b838110156150db5781516150c28882615028565b97506150cd8361555a565b9250506001810190506150ae565b5085935050505092915050565b60006150f38261552e565b6150fd8185615592565b935061510883615503565b8060005b838110156151395781516151208882615040565b975061512b83615567565b92505060018101905061510c565b5085935050505092915050565b600061515182615539565b61515b81856155a3565b93508360208202850161516d85615513565b8060005b858110156151a9578484038952815161518a8582615058565b945061519583615574565b925060208a01995050600181019050615171565b50829750879550505050505092915050565b6151c4816155f3565b82525050565b60006151d58261554f565b6151df81856155c5565b93506151ef818560208601615653565b6151f881615686565b840191505092915050565b600061520e8261554f565b61521881856155d6565b9350615228818560208601615653565b80840191505092915050565b600061523f82615544565b61524981856155b4565b9350615259818560208601615653565b61526281615686565b840191505092915050565b600061527a6000836155d6565b9150600082019050919050565b6152908161561d565b82525050565b61529f81615637565b82525050565b60006152b18284615203565b915081905092915050565b60006152c78261526d565b9150819050919050565b600060408201905081810360008301526152eb81856151ca565b905081810360208301526152ff81846151ca565b90509392505050565b6000606082019050818103600083015261532281866151ca565b9050818103602083015261533681856151ca565b9050818103604083015261534a818461508a565b9050949350505050565b600060e082019050818103600083015261536e818a6151ca565b9050818103602083015261538281896151ca565b90506153916040830188615296565b61539e606083018761507b565b81810360808301526153b08186615146565b905081810360a08301526153c481856150e8565b905081810360c08301526153d881846150e8565b905098975050505050505050565b600060e0820190508181036000830152615400818a6151ca565b9050818103602083015261541481896151ca565b90506154236040830188615296565b81810360608301526154358187615146565b90508181036080830152615449818661508a565b905081810360a083015261545d81856150e8565b905081810360c083015261547181846150e8565b905098975050505050505050565b60006020820190506154946000830184615287565b92915050565b6000604051905081810181811067ffffffffffffffff821117156154bd57600080fd5b8060405250919050565b600067ffffffffffffffff8211156154de57600080fd5b601f19601f8301169050602081019050919050565b6000819050602082019050919050565b6000819050602082019050919050565b6000819050602082019050919050565b600081519050919050565b600081519050919050565b600081519050919050565b600081519050919050565b600081519050919050565b6000602082019050919050565b6000602082019050919050565b6000602082019050919050565b600082825260208201905092915050565b600082825260208201905092915050565b600082825260208201905092915050565b600082825260208201905092915050565b600082825260208201905092915050565b600081905092915050565b60006155ec826155fd565b9050919050565b6000819050919050565b600073ffffffffffffffffffffffffffffffffffffffff82169050919050565b6000819050919050565b600063ffffffff82169050919050565b600060ff82169050919050565b82818337600083830152505050565b60005b83811015615671578082015181840152602081019050615656565b83811115615680576000848401525b50505050565b6000601f19601f8301169050919050565b6156a0816155e1565b81146156ab57600080fd5b50565b6156b7816155f3565b81146156c257600080fd5b50565b6156ce81615627565b81146156d957600080fd5b50565b6156e581615637565b81146156f057600080fd5b5056fea365627a7a723158208663b72032b59b7f75f0147b52191257611225717e6f3131809e64a69303eeb06c6578706572696d656e74616cf564736f6c63430005100040",
  "source": "pragma solidity >=0.4.22 <0.9.0;\r\npragma experimental ABIEncoderV2;\r\ncontract HealthCare {\r\n  address private owner;\r\n  uint public medecinCount = 0;\r\n  mapping (address => doctor) private doctors;// doctor and list of patient profile he can access\r\n  mapping (address => mapping(address => uint)) private doctorToPatient;\r\n  mapping (address => patient) private patients;\r\n  mapping (address => mapping (address => uint)) private patientToDoctor;\r\n  mapping (string => filesInfo) private hashToFile; //filehash to file info\r\n  mapping (address => mapping (string => uint)) private patientToFile;\r\n  uint private gpos;\r\n  \r\n  struct filesInfo {\r\n      string file_name;\r\n      string file_type;\r\n      address added_by;\r\n      \r\n  }\r\n  \r\n  struct patient {\r\n      string fname;\r\n      string lname;\r\n      uint8 age;\r\n      address id;\r\n      string[] files;\r\n      address[] doctor_list;\r\n      uint32 ph_num;\r\n      string [] diagnosis;\r\n      uint addmission_date;\r\n      int256 [] temperature;\r\n      int256 [] humidity;\r\n  }\r\n  \r\n  struct doctor {\r\n      string fname;\r\n      string lname;\r\n      address id;\r\n      uint licenceId;\r\n      uint32 ph_num;\r\n      address[] patient_list;\r\n  }\r\n  \r\n  constructor() public {\r\n    owner = msg.sender;\r\n  }\r\n  \r\n  modifier checkDoctor(address id) {\r\n    doctor memory d = doctors[id];\r\n    require(d.id > address(0x0));//check if doctor exist\r\n    _;\r\n  }\r\n  \r\n  modifier checkPatient(address id) {\r\n    patient memory p = patients[id];\r\n    require(p.id > address(0x0));//check if patient exist\r\n    _;\r\n  }\r\n  \r\n  modifier onlyOwner() {\r\n    require(msg.sender == owner);\r\n    _;\r\n  }\r\n  \r\n  modifier checkFileAccess(string memory role, address id, string memory fileHashId, address pat) {\r\n    uint pos;\r\n    if(keccak256(abi.encodePacked(role)) == keccak256(\"doctor\")) {\r\n        require(patientToDoctor[pat][id] > 0);\r\n        pos = patientToFile[pat][fileHashId];\r\n        require(pos > 0);   \r\n    }\r\n    else if(keccak256(abi.encodePacked(role)) == keccak256(\"patient\")) {\r\n        pos = patientToFile[id][fileHashId];\r\n        require(pos > 0);\r\n    }\r\n    _; \r\n  }\r\n  \r\n\r\n//function for patient\r\n  function signupPatient(string memory _fname,string memory _lname, uint8 _age, uint32 _ph_num ) public {\r\n     patient storage p = patients[msg.sender];\r\n     require(keccak256(abi.encodePacked(_fname)) != keccak256(\"\"));\r\n     require((_age > 0) && (_age < 100));\r\n     require(!(p.id > address(0x0)));\r\n     patients[msg.sender] = patient({fname:_fname,lname:_lname,age:_age,id:msg.sender,ph_num:_ph_num,files:new string[](0),doctor_list:new address[](0),diagnosis:new string[](0),addmission_date:block.timestamp, temperature:new int256[](0),humidity:new int256[](0)});\r\n  }\r\n //function for doctor \r\n  function signupDoctor(string memory _fname,string memory _lname, uint8 _licenceId, uint32 _ph_num ) public {\r\n      doctor storage d = doctors[msg.sender];\r\n      require(keccak256(abi.encodePacked(_fname)) != keccak256(\"\"));\r\n      require(!(d.id > address(0x0)));\r\n      doctors[msg.sender] = doctor({fname:_fname,lname:_lname,id:msg.sender,licenceId:_licenceId,ph_num:_ph_num,patient_list:new address[](0)});\r\n      medecinCount ++;\r\n  }\r\n //function for patient \r\n  function grantAccessToDoctor(address doctor_id) public checkPatient(msg.sender) checkDoctor(doctor_id) {\r\n      patient storage p = patients[msg.sender];\r\n      doctor storage d = doctors[doctor_id];\r\n      p.doctor_list.push(doctor_id);// new length of array\r\n      uint pos = p.doctor_list.length - 1;\r\n      gpos = pos;\r\n      patientToDoctor[msg.sender][doctor_id] = pos;\r\n      d.patient_list.push(msg.sender);\r\n  }\r\n //function for doctor \r\n  function addFile_byDc(string memory _file_name, string memory _file_type, string memory _fileHash, address _patient_Id) public checkDoctor(msg.sender) {\r\n      patient storage p = patients[_patient_Id];\r\n      require(patientToFile[_patient_Id][_fileHash] < 1);\r\n      hashToFile[_fileHash] = filesInfo({file_name:_file_name, file_type:_file_type, added_by:_patient_Id});\r\n      p.files.push(_fileHash);// new length of array\r\n      uint pos = p.files.length - 1;\r\n      patientToFile[_patient_Id][_fileHash] = pos;\r\n  }\r\n//function for patient\r\n  function addFile_byPt(string memory _file_name, string memory _file_type, string memory _fileHash) public checkPatient(msg.sender) {\r\n      patient storage p = patients[msg.sender];\r\n      require(patientToFile[msg.sender][_fileHash] < 1);\r\n      hashToFile[_fileHash] = filesInfo({file_name:_file_name, file_type:_file_type, added_by:msg.sender});\r\n      p.files.push(_fileHash);// new length of array\r\n      uint pos = p.files.length - 1;\r\n      patientToFile[msg.sender][_fileHash] = pos;\r\n  }\r\n//function for patient\r\n  function setData(int256  _humidity, int256  _temperature) public checkPatient(msg.sender) {\r\n      patient storage p = patients[msg.sender];\r\n      require(p.id > address(0x0));\r\n      p.humidity.push(_humidity);\r\n      p.temperature.push(_temperature);\r\n  }  \r\n//function for patient    \r\n  function getPatientInfoForPatient() public view checkPatient(msg.sender) returns(string memory,string memory, uint8, string[] memory , address[] memory, int256[] memory, int256[] memory) {\r\n      patient memory p = patients[msg.sender];\r\n      return (p.fname,p.lname, p.age, p.files, p.doctor_list,p.temperature,p.humidity);\r\n  }\r\n  //function for doctor\r\n  function getDoctorInfo() public view checkDoctor(msg.sender) returns(string memory,string memory, address[] memory){\r\n      doctor memory d = doctors[msg.sender];\r\n      return (d.fname,d.lname, d.patient_list);\r\n  }\r\n  //function for patient\r\n  function checkProfile(address _user) public view returns(string memory, string memory){\r\n      patient memory p = patients[_user];\r\n      doctor memory d = doctors[_user];\r\n      \r\n      if(p.id > address(0x0))\r\n          return (p.fname, 'patient');\r\n      else if(d.id > address(0x0))\r\n          return (d.fname, 'doctor');\r\n      else\r\n          return ('', '');\r\n  }\r\n  //function for doctor\r\n  function getPatientInfoForDoctor() public view checkDoctor(msg.sender) returns(string memory,string memory, uint8, address, string[] memory, int256[] memory, int256[] memory){\r\n      patient memory p = patients[msg.sender];\r\n      return (p.fname,p.lname, p.age, p.id, p.files , p.temperature, p.humidity);\r\n  }\r\n  \r\n\r\n  \r\n}",
  "sourcePath": "C:/Users/Rawya/Electronic-Health-Records/src/contracts/HealthCare.sol",
  "compiler": {
    "name": "solc",
    "version": "0.5.16+commit.9c3226ce.Emscripten.clang"
  },
  "schemaVersion": "3.2.3",
  "updatedAt": "2021-10-11T09:39:29.941Z",
  "networkType": "ethereum",
  "devdoc": {
    "methods": {}
  },
  "userdoc": {
    "methods": {}
  }
}